:020000040800F2
:10000000F8EF0220410200087F4804086D48040808
:10001000814804088D48040899480408000000003D
:10002000000000000000000000000000A5480408D7
:10003000A748040800000000C5560408FD5604083F
:100040004101000841010008410100082949040854
:1000500095A9040841010008B5480408BB480408F4
:10006000C1480408C7480408CD480408057E0408B0
:10007000157E0408257E0408357E0408457E0408A4
:10008000557E0408657E040841010008410100080E
:10009000A94804084101000841010008D3480408A8
:1000A000410100083D4904084F4904085549040826
:1000B0005B490408410100084101000841010008B2
:1000C0004101000841010008410100084101000808
:1000D000614904086749040841010008410100081A
:1000E000F7480408214904084101000841010008BB
:1000F000E5630408E16304084101000841010008C8
:1001000041010008410100084101000841010008C7
:10011000410100084101000841010008757E040802
:10012000857E0408957E0408A57E0408B57E040833
:0C013000C57E0408D57E040841010008CB
:10014000FEE70000174B00219960D3F8882042F4A5
:100150007002C3F888204FF0B0436FF4827C1A68B5
:1001600042F001021A604FF4E0229A601868A2F18E
:10017000A262624402401A60D3F8942022F0050281
:10018000C3F89420D3F8982022F00102C3F89820F5
:10019000054ADA601A611A6822F480221A609961AD
:1001A000704700BF00ED00E0001004224FF0B040A7
:1001B0000368826802F00C02082AC3F3031332D0EA
:1001C0001A490C2A51F8233010D01949042A08BFC3
:1001D0000B464FF0B04217499268C2F3031251F830
:1001E0002220B3FBF2F3144A13607047C168C2685F
:1001F00001F00301C2F30212022902F101020ED141
:100200000B4BB3FBF2F24FF0B041CB68C968C3F3BC
:10021000062353434A0F0132B3FBF2F3D9E7032914
:1002200008BF064BEDE7054BD3E700BF64BD0408EC
:100230000024F400C4BD0408000000200048E801C8
:100240000446DFF82CD00B490B4A0C4B03E051F865
:10025000040B42F8040B9A42F9D300200849094ADA
:1002600001E041F8040B9142FBD3204644F00CB965
:10027000F8EF0220E0FF05080000002070010020D8
:10028000700100200053002040F8044B40F8045B4C
:1002900040F8046B40F8047B40F8048B40F8049B62
:1002A00040F804AB40F804BB40F804CB40F804DB52
:1002B00068467047024B5A690260586100207047D7
:1002C00070010020024B5A6912685A61704700BFE2
:1002D00070010020024B9A69C0E9002198617047C3
:1002E00070010020044A93691968916110B15A683D
:1002F00018461047704700BF7001002038B5054D03
:100300000446AB690BB1A34200D338BD0120FFF70F
:10031000E9FFF6E770010020C4600561466187616E
:10032000C0F81C80C0F82090C0F824A0C0F828B005
:10033000C0F82CD080ED0C8B80ED0E9B80ED10ABC7
:10034000C0F808E0FFF7B6BF124D6C6908B50CB9EC
:1003500044F086F860602046FFF7D0FF23686B61A9
:100360002046C468056946698769D0F81C80D0F8C2
:100370002090D0F824A0D0F828B0D0F82CD090ED60
:100380000C8B90ED0E9B90ED10ABD0F808E00120A7
:10039000704700BF7001002010B50021044600F036
:1003A000E9FA18B914B120460DF028FC10BD00215F
:1003B00000F0E0BA10B50121044600F0DBFA18B9EC
:1003C00014B120460DF01AFC10BDFFF7E5BF10B5C3
:1003D00001220C4600F0F2FB18B914B120460DF0D2
:1003E0000DFC10BD00F0EABB00F0AABB2DE9F04304
:1003F0002B4C864600254FF0030CD4F87C020021DC
:1004000001310EEB01039A0803F00303825C5B00E9
:1004100042FA03F303F00303022BF1D0D4F888026D
:10042000090100EB0E108E0889B300EB8606036805
:100430001A0729D1D4F888125A1AC2F3011E994218
:100440004FEA92174FEA4E0E4FEA12121CD8D4F818
:100450008C12994218D9D4F87C8218F8071041FA06
:100460000EF303F003030CFA0EF9012B41EA090124
:100470000AD104EB450E3F2D08F807109ABF01354D
:10048000AEF89C22C4F898320430B042CFD12DB1DE
:10049000013D04EB4503B3F89CE2AEE7BDE8F08311
:1004A0007001002030B51C4CD4E9A153C01AC10919
:1004B000C0F3021E6B5C012202FA0EF223EA020371
:1004C0006B54D4F8902283094FEA101CB2EB901FB2
:1004D000D4F87C0288BFC4F89032C15C4FEA9C0E0D
:1004E0000CF0030303255B0005FA03F321EA030183
:1004F00000F80E100CF1010CD4F87C024FEA9C0EAF
:100500000CF0030310F80E105A0041FA02F202F048
:100510000302022AE7D030BD7001002021F00F0154
:1005200038B50B1A134A144C013BDB00A2FB032322
:100530005B0A9A00C4E99F030546C4F88C1207328F
:10054000A1EB831101331D4403EBD202C4F88812DE
:100550000021C4F884523CF00DFC002301214FF02F
:10056000FF32C4E9A433C4E9C8322381A4F81C13C0
:1005700038BD00BFF32C23FA70010020024A138912
:1005800001331381704700BF70010020024A1389B4
:10059000013B1381704700BF70010020024B188996
:1005A000003818BF0120704770010020F8B51B4DBE
:1005B0002B8900220133C5F820232B81C5F898220E
:1005C00005F1080405F5E87654F8043F1A071AD136
:1005D000D5F88822981AC0F3011193424FEA901C73
:1005E0004FEA41014FEA10100DD3D5F88C22934207
:1005F00009D2D5F87C7217F80C2042FA01F303F007
:100600000303012B02D0B442DED1F8BD03238B409B
:100610001A4307F80C20FFF7E9FEF4E77001002009
:1006200081B3F8B5184E0F46051F002455F8043F56
:100630001A071AD1D6F88822981AC0F3011C9A42D8
:100640004FEA90114FEA4C0C4FEA10100DD8D6F833
:100650008C229A4209D9D6F87CE21EF8012042FA8F
:100660000CF303F00303012B03D00134A742DDD1C7
:10067000F8BD032303FA0CF31A430EF80120FFF729
:10068000B5FEF2E7704700BF700100202DE9F04F82
:100690005A4DD5F89832D5F8801283B0002B00F06F
:1006A000AA8089000026C5F89862002900F08A8097
:1006B0000027D5F87C02BB0807F00302C35C520098
:1006C000134103F00303032B0C4668D001378F421C
:1006D000EFD3D5F89832002BE5D1D5F89432A34268
:1006E0006ED25C1C4FF0000BDC465F46D5F87C22D6
:1006F0004FEA970807F0030612F80810760041FA4F
:1007000006F303F00303022B02EB97006FD0032BD9
:1007100063D0012B3FD1D5F884224FEAD70A07F0E6
:10072000070912F80A3043FA09FC1CF0010F02EB2A
:10073000D70228D0D5F88812380151F800C001EB53
:100740000710BCF1000F13D06A4640F22B310CF0B9
:1007500011FC009B3BB10DF0F1FCDDE900010DF057
:10076000BDFC0DF001FDD5F8842212F80A30524488
:10077000012101FA09F923EA09031370D5F87C0273
:1007800010F808104044032303FA06F621EA06068F
:1007900006704FF0010C0137A742A7D314E038468A
:1007A000FFF724FED5F88012013789008F420C46EE
:1007B000FFF47FAFD5F89832002B7FF474AF8CE74D
:1007C000002C8FD14FF0000B2B890022013BC5E993
:1007D000A42B2B8103B0BDE8F08F0223B34021EAA4
:1007E000030102F80810BB464FF0000CD3E7BCF140
:1007F000000FF8D0C7E78C006FE700BF7001002042
:10080000044B1A8900210132C3F898121A81FFF7AC
:100810003DBF00BF70010020554BD3E9A2122DE966
:10082000F043521A0024D3E99F61C0E90144C0E9B2
:100830000344C0E9054402604FEA810C2246214688
:10084000A146A6462746254616F809304FEA4E0E21
:1008500043FA0EF303F00303012B02F1010255D01A
:10086000022B24D033BB01379445876004F1010487
:100870006DD04FEA920902F0030E16F809804FEA94
:100880004E0148FA01F818F002013BD108F00308C4
:1008900094452DD0B8F1010F04D1C3689C4288BFA4
:1008A000C46000244FEA920902F0030ECCE7013540
:1008B00045600131944541D04FEA920902F0030EA0
:1008C00016F809304FEA4E0843FA08F303F003081C
:1008D0009B0718D401292CD0022903D14369013385
:1008E0004361022183698B42D2D294458161D1D187
:1008F000C3689C4200D9C4602D013F01C0E9015783
:10090000BDE8F083194694459ED1F5E7013594453D
:10091000456025D04FEA920902F0030E16F80980CF
:100920004FEA4E0148FA01F818F0020FEAD108F038
:1009300003080369013303610121D3E701299846C4
:10094000F7D00229CAD083699942CED8D0E7C368CC
:10095000A342D0D32D013F01C0E90157BDE8F08388
:100960000269013202618269002AC1D18361BFE755
:10097000700100202DE9F84300F10F0636093FD041
:100980006E4C2389E3BBB4F81C230D46E2BBD4F8BC
:100990009002D4F88072B84232D24FF0010ED4F8EF
:1009A0007CC20138013F604467440021CCF101085A
:1009B00018E04A1C964255D913F00C0F42D18A1CFC
:1009C000964240F2AA8013F0300F41D10132964294
:1009D00040F2A8803F2B2ED8511C8E4240F2A780B7
:1009E000B8420AD008EB000910F8013F9A07E0D09E
:1009F00013F00C0F21D10122E2E7BEF1000F0FD05E
:100A000000231846BDE8F883D4E9C812914226D2E3
:100A1000D4F89002D4F88072874288BF9E46BED830
:100A200048F09AFCD4F89002D4F88072B8424FF0A3
:100A3000010EB4D3E4E70021D2E713F0300F0CD15C
:100A40000122C4E703F03002B2FA82F25209C1E790
:100A50003F2B8CBF00210121C2E70022BAE748F0FA
:100A60007BFC94E74FEA8909A9EB0201012A01F115
:100A7000010704D109F101039B08C4F89032D4F8AE
:100A800094324B4538BF4B46B808C4F8943207F04F
:100A9000030E1CF800804FEA4E0E0123023103FAC8
:100AA0000EF343EA080389450CF8003012D34FF0E7
:100AB000020E8808D4F87CC201F003031CF8008001
:100AC0005B000EFA03F3013143EA080389450CF891
:100AD0000030EED2D4F82033D4F888823344C4F8FE
:100AE000203308EB07131201184600213CF042F9AD
:100AF000EA074FEA0716034683D50022D4F884029A
:100B000048F80620F9080122445C07F00707BA40BC
:100B1000224342541846BDE8F8834FEA890909F197
:100B20000109A1E74FEA890909F102099CE74FEAA7
:100B3000890909F103090A4696E700BF7001002000
:100B4000034B1A8912B908B1FFF7ACBC704700BF5C
:100B500070010020034610F00F001CD1164AD2F895
:100B60008812994216D810B4D2F88C429C420ED901
:100B70005B1AD2F87C429A09C3F30111A25C4900C6
:100B80000A4102F00302012A4FEA131305D05DF86F
:100B9000044B704770470020704701301A189108C5
:100BA00002F00302615C520041FA02F202F0030219
:100BB000022AF2D00001EAE7700100202DE9F84F87
:100BC0000F460646002800F0CA80734D2C89002984
:100BD00000F09080002C40F09080D5F88802D5F885
:100BE00080C2301A030903F1010E0F31BEEB8C0FE6
:100BF0004FEA11114FEA8C0A80F0B780D5F87C9249
:100C0000A4464FF001084FEA9E040EF0030B19F8BA
:100C100004404FEA4B0B44FA0BF404F00304022C9B
:100C20002AD02CB90CF1010C0CEB08048C4225D312
:100C300041455BD065D3C4448C4524D2002A5CD0A6
:100C4000C209D5F88412895C03F0070319413846BC
:100C500001F00101FFF78EFE044600284DD04FEA57
:100C6000081231463CF042F82B8913B93046FFF7A1
:100C700019FC2046BDE8F88F08F101080EF1010EBD
:100C8000F245C0D1D4E75C1843449C421FD9980870
:100C900003F0030219F8007052004FF0020C013308
:100CA0000CFA02F23A439C4209F800200FD9980846
:100CB000D5F87C7203F0030217F800E052000CFA3A
:100CC00002F2013342EA0E029C423A54EFD1D5F8C7
:100CD0009432A1EB08029C4238BF1C46120106EB7D
:100CE00008100021C5F894423CF044F834462046F0
:100CF000BDE8F88F0CB9FFF7D5FB00242046BDE80E
:100D0000F88F5C18A00804F0030719F800E07F00D2
:100D10004FF0030CA8EB01010CFA07F72EEA0707C6
:100D2000012909F8007004F1010410D003EB080E4A
:100D3000A708D5F87C3204F00302D95D52000CFA02
:100D400002F2013421EA02027445DA55F0D1D5F8F5
:100D500090328342CAD9C5F890023446C7E70146AB
:100D60003846BDE8F84FFFF705BE0129BED029B1CE
:100D70004FF00108002A7FF463AFBEE7D5F87C424C
:100D8000800903F0030359000322235C8A4023EA0D
:100D900002032354DBE700BF7001002010B58AB0C6
:100DA000044603A8FFF738FDDDE90430039A0090FC
:100DB0000749204600F076FFDDE90832069805492C
:100DC000CDE90020079A204600F06CFF0AB010BD64
:100DD00004BE040828BE04082DE9F843DFF8589142
:100DE0004749D9F88822074600F05CFFD9F88012FD
:100DF00089006DD0DFF84481002515F03F0633D01F
:100E000005F003067600D9F87C22AB08D35C3341A9
:100E100003F00303022B63D0032B5FD0012B4AD1D5
:100E2000D9F888222B01D25842455BD0354B9A42E3
:100E30005AD0354B9A425BD0344B9A4256D0344B01
:100E40009A4253D0334B9A4254D0334B9A4251D0AA
:100E5000324B9A4252D0324B9A424DD0314B9A4249
:100E600014BF68224D2227E0A9421ED9D9F87C027E
:100E70002C4602E001348C4208D0A20804F003039F
:100E8000825C5B0042FA03F39B07F3D0621B7F2A6C
:100E90000BD925499209384600F004FFD9F8803271
:100EA00024F03F05B5EB830F12D220492A013846C2
:100EB00000F0F8FEA7E72E221D49384600F0F2FEAA
:100EC000D9F880320135B5EB830F4FEA830194D313
:100ED00038461849BDE8F84300F05DBB6D22EBE7EA
:100EE0003D22E9E75422E7E74C22E5E75322E3E716
:100EF0004422E1E74122DFE74222DDE74622DBE749
:100F000070BE040814510508FC4805087C59050802
:100F10004C59050838460508C4450508A44D050880
:100F2000404E0508885205088CBE0408A8BE040877
:100F3000B0BE04086CBE040870010020C45A050845
:100F4000064A0346506A1A684168C1F31E018A4284
:100F500002D3521A1A6070470068F5E7700100204A
:100F6000014441F20553884204D398B2012838BFA6
:100F70000120704710F8012B03EB43135340F2E7B5
:100F8000034B044A5A620022C3F8D421704700BFC1
:100F900070010020508905082DE9F04781460F4671
:100FA000002943D0FFF7DCFF214B5C6A82460CB975
:100FB000204637E094F90730E668002B06F1FF364B
:100FC0004FF0000516DB013604F11808B54215D3C1
:100FD0002468ECE705EB06084FEA580808F1060319
:100FE0003A4654F8231048463BF028FF0028CCBF6F
:100FF00045464646731B012BECD8E4E7236933F8DA
:1010000015309A4510D163695B5D9F420CD158F849
:1010100025003A4649463BF0D9FE28B96068C0F33E
:101020001E002844BDE8F0870135CFE70120F9E72D
:10103000700100202DE9F84380460F46FFF7ACFF12
:10104000002840F09280FF2F03D9494949480CF00D
:1010500014F8494DD5F8D4317E1CABB1D5E97612E0
:1010600032448A422CD9024631441846FFF7BAF975
:10107000D5F8D4310446E0B90246D5F8DC1118465B
:10108000FFF7B0F9C5F8D441802E344638BF80242C
:101090002046FFF78CF90346C5F8D401B8BB3046AB
:1010A000FFF785F90346C5F8D40178BB30460CF04C
:1010B000A5FDD5F8D8213244C5F8D821002BE3D0BE
:1010C000D5F8DC219C1832444146C5F8DC21204685
:1010D0003A464FF000083BF009FE04F80780394615
:1010E0002046FFF73DFF8146686AD0E90262B242BE
:1010F0002BD376000A2E38BF0A26C6EBC60018305E
:10110000FFF755F948B9C5F8D401CFE734460022B6
:10111000C5F8D841C5F8DC21D2E700F1180202EB8E
:101120008602696A026102EB460242614A68016016
:10113000C968C0F80C80C2F31E020A44416862F319
:101140001E01C0E90116424668620169436921F83F
:1011500012909F54911D6B6A43F82140D9685868DA
:101160000131C0F31E00D9601044BDE8F88300BF10
:10117000F7BE0408984A05087001002010B504461F
:101180003BF036FE01462046BDE81040FFF752BF57
:1011900007B5019001A8FFF7D3FE019A036933F860
:1011A000120003B05DF804FB07B5019001A8FFF73A
:1011B000C7FE019B4269D05C03B05DF804FB07B534
:1011C000019001A8FFF7BCFE019B063350F82300F5
:1011D00003B05DF804FB13B5019001A80C46FFF7BE
:1011E000AFFE019B4269D25C2260063350F82300B7
:1011F00002B010BD2DE9F8431D46002303600B60CB
:1012000013602B60164BDFF85C905C6A07468846DB
:10121000164664B92B68326813442B60BDE8F88326
:10122000336812F8010B0133034433600DE04C4581
:10123000F0D03B6801333B60E268D8F800301344DB
:10124000C8F800306269E368D1188A42E8D32046C2
:10125000FFF780FC2B68246803442B60D9E700BFAC
:101260007001002050890508F8B50B4B0B4F5C6AE4
:101270000CB1BC4200D1F8BDE36804F1180505EBE0
:101280008306B54201D32468F2E755F8042B0449DC
:10129000044800F007FDF4E77001002050890508BC
:1012A000FCBE04083039050830B50023202511F8AC
:1012B000012F0AB9027030BD120600F1010420D5D9
:1012C00013B12023037020460B78124A03F07F03EA
:1012D0006BB9013A12F8013F13F0800F044600F198
:1012E00001000BD003F07F0323700123DFE712F925
:1012F000014B002CFBDA013BDBB2E9E700F8013CD3
:10130000E8E7012B04BF057020460B7800F8013B8D
:101310000223CCE703BF040838B5436819440368C7
:101320009942054610D9037B1BB1084800210BF0F8
:10133000A4FE01F1100424F007040834806821465B
:10134000FFF745F82C60A86038BD00BF984A050833
:1013500070B504460E4611461546FFF7DDFFD4E989
:1013600001302A46184431463BF0F0FC63682B44B8
:10137000636070BD70B54668B142044628BF31460F
:101380000D460121FFF7C8FFA368681C5919721B9D
:1013900018443BF0DBFC6368A068013363602844B9
:1013A00070BD38B50129044638BF01210025084623
:1013B00021606560FEF7F0FF2573A06038BD38B589
:1013C00005460C460131FFF7ECFF6C6038BD002389
:1013D000C0E90132012301600373704738B5144638
:1013E0000546FFF7DEFF024B2560636038BD00BF96
:1013F00051130008037B10B5044613B98068FEF74B
:10140000F3FF0023A36010BD38B505461020FEF79A
:10141000C3FF29460446FFF7C4FF204638BD10B578
:10142000044648B1037B13B98068FEF7DDFF204610
:10143000BDE81040FEF7D8BF10BD000038B5037BF3
:1014400004460D461BB1074800210BF016FE01684B
:1014500080682944FEF7BBFF2368A0601D44256017
:10146000184438BD984A050838B504460D46FFF7BC
:1014700053FFD4E901301D446560184438BDD0E9FC
:1014800000239A4210B5044602D10121FFF7D6FF8E
:10149000D4E901320021D154A06810BD10B50C462A
:1014A0000121FFF7E1FF047010BD7F29F8B50C465C
:1014B000CEB204D80121FFF7D7FF0670F8BD06F0C1
:1014C0003F06B1F5006FC1F3871546F0800607D2DD
:1014D0000221FFF7C9FF65F03F0505704670EDE793
:1014E00005F03F05B1F5803FC1F3073745F08005B2
:1014F00008D20321FFF7B8FF67F01F070770457098
:101500008670DBE70421FFF7AFFFA40C07F03F076D
:1015100064F00F0467F07F07047047708570C67031
:10152000CCE738B5054608460C463BF061FC214641
:1015300002462846BDE83840FFF70ABF10B51446FA
:10154000FFF718FF047010BD10B51446FFF712FF27
:10155000047010BD43688B422CBF591A00214160B2
:10156000704738B50446154662688A42084603D972
:1015700029448A4201D8606038BDA368521A1844D1
:1015800019443BF0E3FB63685B1B6360F4E70846C8
:1015900011463CF0FBBB70B5054608460E463BF0D5
:1015A00027FC044620B102466B68286831469847FC
:1015B000204670BD2DE9F74F8A469DF830109146C0
:1015C0000D9A11F0DF0F0646A2EB09023BD030293D
:1015D0003BD1244F4FF0100813F0800539D002EBB7
:1015E000D2746510A2EB6404002D39DDAB46D845FA
:1015F000424673683068A8BF5A46394601929847F8
:10160000019AABEB020BBBF1000FF0DCB9F1000F5C
:1016100005D0736830684A46514698474D44002CBF
:101620000DDD2544A045C146A8BFA14673683068BA
:101630004A463946A4EB09049847002CF2DC2846B8
:1016400003B0BDE8F08F084FC4E70CAF4FF00108BE
:10165000C2E713F0010401D11546C5E71446D5E7EA
:101660000025D3E738390508493905082DE9F04345
:1016700089B006460020119D9DF84880139F8DF883
:101680000F000AB381421ADA2D228DF80F20494249
:10169000109A08ACA2F10A000DF11009B1FBF3FC9D
:1016A00003FB1C12092A8CBF1218303204F8012DDA
:1016B0004C458E4661460ED07345EFD90BE0A80726
:1016C00027D52B228DF80F200029E1D130238DF86A
:1016D0001F300DF11F0415F040099DF80F301CD08C
:1016E00023B30122CDE900822B460DF10F013046D4
:1016F000FFF760FF013F814608AACDE900872B462E
:10170000121B21463046FFF755FF484409B0BDE89B
:10171000F0836A07D8D52022D4E7002BECD004AAA6
:101720009442E9D904F8013C013CE5E79946E3E736
:101730002DE9F04F91B08346C807DDE91C871A9C5C
:101740009DF86CA00D4691461E460BD4A90703D107
:1017500029687B4B994205D028460DF061FB450076
:1017600045F0010514F0810306D1BAF1300F03D121
:10177000B845B8BFB8461F46284610F0D4FD00282B
:1017800018DBA20712D52B238DF820300DF1210391
:10179000E006F6B21CD5B9F1020F0DD11946302082
:1017A00001F8020B701C58700B4611E0630701D55D
:1017B0002023E9E708ABEBE7B9F1080F60D130214E
:1017C0001970A10545BF06F10E01597001330233AE
:1017D000002108AA14F0200F1970A3EB020305934F
:1017E00014BF2C230B46012F0CA8C8BF44F04004A3
:1017F000099014F040024FF01000CDE90A01CDE944
:1018000003328DF81F10029644D0CDE900912B468B
:101810000BAA0AA909A810F05BFC03782D2B8146BE
:1018200006D18DF81F300B9B013B00F101090B9392
:10183000012F7EDD0B9D049BBD42B8BF3D462BB101
:101840009DF81F3003B10135059B1D44A84524F0C8
:10185000010A6BDD14F00104A8EB050567D1202314
:10186000019500933749234622465846FFF7A2FECA
:1018700025460646049B54464FF0300ABBB937E074
:10188000B9F1100FA4D11946302001F8020B06F16E
:10189000170088E708ABCDE900930BAA2B460AA9ED
:1018A00009A810F015FC8146C2E700252E469DF8D8
:1018B0001F305BB100230122CDE900320DF11F0181
:1018C0005846FFF777FE08F1FF380644059B63B1E1
:1018D00000230122CDE9003208A9059A5846FFF7F6
:1018E00069FE059B0644A8EB0308012FD8BF4746B5
:1018F000CDE900A70B9A234649465846FFF75AFE02
:1019000006444DB12023009300230E4901951A4649
:101910005846FFF74FFE064409980CAB984201D099
:10192000FEF762FD304611B0BDE8F08F00250026BD
:10193000A0E7049B002BB8D11D461E464746D7E7BB
:10194000FC4F0508DA0905082DE9F0431646B207F1
:10195000984658BFC6F380038BB05ABF5B01DBB219
:101960002B2300930A46139BDDF84890074620215D
:1019700002A80AF07DFAF305044610D5431C1F2B7C
:101980000DD800F128020DEB0204252204F8202CCA
:1019900003F128026A44002102F8201C1C4616F0BC
:1019A00040051DD09DF808302F2B4FF0000319D8AB
:1019B000012202A9CDE900323846FFF7FBFD09F10B
:1019C000FF390546013C0DF10901CDE90089334697
:1019D00022463846FFF7EEFD28440BB0BDE8F08301
:1019E00002A9F2E702A91D46EFE700002DE9F04F3A
:1019F000824689B0144600260B461D4613F8012B7B
:101A00000AB1252AF9D1A94208D26F1ADAF80430AE
:101A1000DAF800003A4698473E4429460B78002BF6
:101A200000F03881013120234FF000080A4612F8F7
:101A3000015B3DB12B2D2CD01FD8202D2CD0212D7A
:101A40002DD000250F4611F8012BA2F130000928F6
:101A500028D92E2A51D17A782A2A29D000220F4655
:101A600011F8010BA0F1300CBCF1090F23D80A27A3
:101A700007FB020BABF13002F1E72D2D05D0302D25
:101A8000DFD148F040082B4601E048F0010811463C
:101A9000CCE748F00208FAE748F00408F7E748F016
:101AA0000808F4E70A2000FB0522A2F13005C9E787
:101AB00054F8042B023722EAE27B3A786C2A08BFFA
:101AC000013797F80090B9F1000F00F0E380B9F109
:101AD000780F09D8B9F1570F12D8B9F1470F59D873
:101AE000B9F1440F00F2C380DAF80430DAF80000EC
:101AF000012239469847013663E04FF0FF3BDCE7AF
:101B0000A9F15802202AEFD801A151F822F000BF14
:101B10004D1C0008E91A0008E91A0008E91A000833
:101B2000E91A0008E91A0008E91A0008E91A000889
:101B3000E91A0008E91A0008AB1B0008CD1B0008D1
:101B4000311C00086F1C00086F1C00086F1C000887
:101B5000E91A0008E91A0008E91A0008E91A000859
:101B6000E91A0008E91A0008E91A0008E91A000849
:101B70009B1B0008E11B0008E91A00080B1C000869
:101B8000E91A00084D1C0008E91A0008E91A0008C3
:101B90004D1C0008B9F1500FA6D1CDE902356123E3
:101BA0000093CDF8048010235FE054F8042BCDE9B6
:101BB000003543463AB1394904225046FFF7FAFC52
:101BC0000644791C18E736490522F6E754F8042B39
:101BD0008DF81C20CDE900350122434607A9ECE72A
:101BE00007A954F8040B0593FFF7F5FABBF1FF3F83
:101BF000059B014604D0079A934538BFCDF81CB029
:101C0000CDE90035079A4346D7E754F8049B05937E
:101C100048463BF0EDF8BBF1FF3F059B024602D082
:101C2000584528BF5A46CDE9003549464346C4E7E2
:101C3000CDE9023561230093CDF804800A23012207
:101C400054F8041B5046FFF711FDB9E729F00F02C5
:101C500009F101010F3A01F00601D2B2CDE90235D6
:101C6000CDF804800092C1F110030022E8E70734A8
:101C700024F00704F4E80201059349F097FECDE94A
:101C8000005B00EE100A059B424649465046FFF7AE
:101C90005BFE95E7304609B0BDE8F08F96EA040890
:101CA0009BEA04080EB403B503AA52F8041B019280
:101CB000FFF79CFE02B05DF804EB03B070470346EB
:101CC000007893F90020002A0ADA00F07F00402211
:101CD000104206D113F8012F02F0C001802904D070
:101CE000704720EA02005208F2E702F03F0242EA9F
:101CF0008010EFE7431C18460133027802F0C0025F
:101D0000802AF8D0704703460020994200D87047D7
:101D100011F8012D02F0C002802A18BF0130F4E74B
:101D200003460144002099421A4600D870471278B1
:101D300002F0C002802A03F1010318BF0130F2E76C
:101D40007F289DBF024B185CC0F340000020704705
:101D50005A3905087F289DBF024B185CC0F3C000AC
:101D6000002070475A3905087F289DBF024B185C38
:101D7000C0F38000002070475A3905087F289DBFB6
:101D8000024B185CC0F38010002070475A390508D8
:101D90007F2809D8064B1B5C13F00C0F06D1A0F16D
:101DA0005F03584258417047002070470120704738
:101DB0005A3905087F289DBF024B185CC0F30010FC
:101DC000002070475A3905087F289DBF024B185CD8
:101DD000C0F34010002070475A39050808B5024684
:101DE000FFF7E8FF02EB401008BD08B50246FFF719
:101DF000EBFF404220F01F00104408BD3038092896
:101E000084BF20F020000738704710B50246014417
:101E1000E5240020914203D8B0FA80F0400917E091
:101E200012F8013B30B103F0C003802B11D101380F
:101E3000C0B2EFE7BF2B09D9F72B09D8DB0803F0B5
:101E4000060344FA03F303F00300E3E71B06E1D5BE
:101E500010BD0020FCE7023981420B4603D31A88EB
:101E60000239002AF8D00233181A40107047B2EB3A
:101E7000131F70B504464FEA131019D901EB400146
:101E8000101A03F00F0302462646012A0CBF0D88E4
:101E90000D68013A25FA03F526F8025B01F102010B
:101EA000F3D104EB400434F8023C03B9013870BDAF
:101EB0000020FCE7F0B5059C0025121B2E46AC4225
:101EC0000FD101EB4403174600EB4404411A9FB9BC
:101ED00004EB420316B124F812600233181A4010C2
:101EE000F0BD31F8157033F815C067443E4420F852
:101EF0001560360C0135E2E71D8835445D522E0C25
:101F0000013F0233E3E7F0B4049F00260D46344658
:101F1000D11BB7420BD105EB47030A4600EB47073D
:101F2000451B7AB907EB4101F0BCFFF794BF35F8C8
:101F300016C033F816206444A41A20F8164024145E
:101F40000136E6E71E8834445C53013A2414023318
:101F5000E7E72DE9F043079CDDF828E0DDE90876A6
:101F60000239154684464FF6FF78A4EB020955B9AD
:101F700000EB42011FB1012320F812300231BDE80D
:101F8000F043FFF768BF31F8024F013D4444264457
:101F900005EB0904A5422ABF33F8024B4FF6FF7444
:101FA0004444744486EA040E17FA8EF72CF8027B38
:101FB0004FEA144E360C3F0CD9E738B502290446D7
:101FC000806838BF02210D4618B12368B1EB930F2A
:101FD00007D96900FEF7FBF92368A06065F39F034A
:101FE000236038BD38B504460C20FEF7D5F92368C8
:101FF0002278054602F00102C3F39D0023F003039B
:1020000013432B6063686B604000FEF7C5F9A8605E
:102010002268A168C2F39D0252003AF067FE28468A
:1020200038BD994210B511D313D800EB410002EB33
:10203000410209B9084610BD30F8023D32F8024DA0
:102040001B1B002B02DB04D10139F2E74FF0FF30FC
:10205000F1E70120EFE710B5044638B18068FEF7DC
:10206000C3F92046BDE81040FEF7BEB910BD70B5FB
:1020700005460C460221FFF7A0FF002C2B78B4BFC9
:102080000122002262F30003AA682B70B4BF6142F0
:102090002146012388B2090C14461E4622F8020B81
:1020A00003F10103F6D16E60208070BD0023C0E90A
:1020B00000338360704728B103789B0702D480689F
:1020C000FEF792B9704738B504460D464968FFF7E8
:1020D00074FF2A782378A06862F3000323706A688B
:1020E0006260A9685200BDE838403AF0FFBD0A4678
:1020F00029B90178426062F3000101707047FFF76F
:10210000B6BF08B5FFF7D2FFBDE80840FFF7EFBF45
:10211000920042F0020210B402600022C0E90121E4
:102120005DF8044B1946FFF7E2BFF8B59DF818704B
:1021300014461D4604210646FFF73FFF22462B4664
:1021400027B1002D0CDA624265EB4503317867F365
:10215000000131700021716052EA030102D1F8BD23
:102160000027F3E7D6E901104C1C746020F8112019
:10217000120C42EA03421B0CEEE72DE9F3418DED10
:10218000010A019D0378EA0F62F300030370C5F3AF
:102190000F4313F4FF4380460BD198F8003023F02F
:1021A000010388F800300023C8F8043002B0BDE80D
:1021B000F081B3F5FF4FF0D0C5F3C754A4F17F060B
:1021C000002EEADB05D1012102B0BDE8F041FFF7A6
:1021D0004EBF162EC5F31605A4F16F07D8BFC6F182
:1021E000170645F400054FEA2717D5BFF540963C82
:1021F00000260936D4BF344624113946C8BF06F03C
:102200000F06FFF7DAFEC8F804702CB1D8F8080002
:10221000620000213AF0AEFD4EB1D8F8083005FA60
:1022200006F223F81420C6F11006F5400134A74247
:10223000BCD0D8F8083023F814502D0CF6E72DE95F
:10224000F84304468F18C2F35B020D46511C9846B2
:10225000089EFFF7B2FE237868F300032370AC46B4
:1022600000221FFA86FEBC456046626002D3401B16
:10227000BDE8F8830178A1F13003092B0CF1010CC2
:1022800005D9A1F14103192B12D8A1F13703B342AB
:10229000EDD2A06890468146B8F1000F0FD100EB57
:1022A000420113B120F812300231091A4A10DAE75C
:1022B000A1F16103192BDAD8A1F15703E7E7B9F8C7
:1022C00000100EFB013329F8023B08F1FF381B0C0C
:1022D000E2E7F8B5044615461E46C1B1531E1E443A
:1022E0004FF0FF37E9000F3109092046FFF765FE7F
:1022F0002378002123F00103237061600B4645B968
:10230000A06800EB4101FFF7A6FD6060F8BD012762
:10231000E8E700220F2B08DC307898400243013DAB
:1023200092B203F108033E44F4D1A068013100EBFE
:1023300041006160103B20F8022CE0E738B50578D9
:102340000B7805F0010203F001030446981A08D146
:10235000D1E90132D4E90110FFF763FEEB0748BF72
:10236000404238BD884210B5044601D0FFF7ABFEAD
:10237000237823F00103237010BD884210B5044672
:1023800001D0FFF7A0FE63683BB12378C3F30002DE
:1023900082F0010262F30003237010BD88421FB572
:1023A000044601D0FFF78FFE626862B90121204622
:1023B000FFF703FEA268012313806360237843F0D4
:1023C0000103237010E02378D9070FD523F0010310
:1023D000237001230093A168ADF80E3008460DF17B
:1023E0000E03FFF790FD606004B010BD511C204645
:1023F000FFF7E3FD01230093D4E90121ADF80E308E
:1024000008460DF10E03FFF755FD6060D6E74B68F7
:102410002DE9F04705460E46144603B12AB9314668
:102420002846BDE8F047FFF74EBE02F10F014FEA24
:10243000111803EB1111FFF7C0FDD6E9012308EBDA
:102440000207A96807F1004014F00F0400F1FF3003
:1024500008BF10244FEA400901EB400003EB4203A0
:10246000114686464FF0000CC4F1100409BB6FF012
:1024700001035A4383182CFA04FCC8F1010820F820
:1024800002C003EB48034FEA4802184652423AF0B2
:1024900071FC09F1020903464B4417B133F8022DD0
:1024A0009AB16F6032782B7862F300032B70BDE82D
:1024B000F08733F802AD4AEA0C0C2CFA04FA2EF835
:1024C00002A94FEA0C4C0139D0E7013FE5E72DE9BD
:1024D000FF410D4649680646144601B132B9294606
:1024E000304604B0BDE8F041FFF7EDBDFFF765FDF4
:1024F000B768D5F808806A68234641463846FFF732
:10250000B6FC70602978337861F300033370DB0721
:1025100002460AD500236968ADF80E3020099942B9
:1025200001D0834204D181420AD804B0BDE8F081D1
:1025300038F813509DB101238142ADF80E3012D905
:1025400004F00F04012338F8101003FA04F4013CDE
:10255000214206D1BDF80E30002BE6D003E0013356
:10256000DDE7ADF80E30012312B93B807360DCE784
:10257000009339460DF10E033846FFF79BFC70605F
:10258000D3E72DE9F3410D465768D1F804803B4667
:10259000144606469268A8684146FFF742FD01309E
:1025A0001EBF23462C461D4623782A7883EA020361
:1025B00018BF4746DB0719D4791C3046FFF7FDFCEE
:1025C0006B680093D4E90121AB68B068FFF772FC37
:1025D00070602378327800280CBF002303F00103D9
:1025E00063F30002327002B0BDE8F0813946304634
:1025F000FFF7E3FC6B680093D4E90121AB68B06896
:10260000FFF781FCE4E72DE9F3410F464E68D2F86D
:10261000048014464346314692680546B868FFF781
:1026200000FD01301EBF23463C461F4623783A7802
:1026300083EA020316BFB04601260026DB0719D540
:1026400008F101012846FFF7B8FC7B680093D4E944
:102650000121BB68A868FFF72DFC686018B12078DD
:1026600000F0010070402B7860F300032B7002B083
:10267000BDE8F08141462846FFF79FFC7B68009348
:10268000D4E90121BB68A868FFF73DFCE5E74B688A
:102690002DE9F04F0C4651688B42154621BF254667
:1026A000194613461C462B78DB0785B0064622D414
:1026B000237813F001071ED1FFF77FFCD4E9011C3A
:1026C000B068AD683B4699420CD100EB4101FFF781
:1026D000C2FB00237060327863F30002327005B0F1
:1026E000BDE8F08F35F813203CF81340224020F865
:1026F00013200133E7E701313046FFF75EFC2F7806
:102700002378D5F804C0B068A26887EA0301C943FA
:1027100001F0010E41F3000189B207F0010947F30E
:1027200000070291B9B20191A968A1F1020861689C
:1027300003F0010A43F300039BB2A1EB0C010093E9
:102740006746834603918FB900EB4C01BEF1000F41
:1027500003D0012320F81C300231FFF77CFB7060AE
:1027600022782B78C2F300021340B4E738F8021F36
:10277000019B5940039B013F8944D9198F4225BFD2
:1027800032F8021B009B009959408A44029B09EAD7
:102790000A0159401EFA81F12BF8021B4FEA1A4A2E
:1027A0004FEA19494FEA114ECDE72DE9F84F4B6832
:1027B0000D4651688B42144621BF2C4619461346DC
:1027C0001D462378DB07064631D42B7813F001072A
:1027D0002DD1FFF7F2FBD5E9012EA0686468D6F889
:1027E00008C0A41A3B469A4213D10CEB420321467F
:1027F00000EB4202ACEB0000A1B903EB4403A3EBF6
:102800000C0358103378706061F300033370BDE837
:10281000F88F30F813103EF8135029432CF813109A
:102820000133E0E71588155201390232E4E701313E
:102830003046FFF7C2FB27782B786168B068A46840
:10284000D5E901E203F0010947F3000543F3000372
:1028500007F00108ADB29BB2A4F1020C0F4683460B
:102860004FF0010AAEEB010E2FB900EB4101FFF76B
:10287000F2FA0121C6E73CF8024F013F6C40A04448
:102880000EEB0704A7422ABF32F8024B1C465C40FD
:10289000A14448EA0904E4431AFA84F42BF8024BF1
:1028A0004FEA19494FEA18484FEA144ADCE74B68E7
:1028B000F0B50D4651688B4224BF194613461446A5
:1028C00024BF2C461D4627782B785F4017F0010760
:1028D00085B0064636D1FFF770FBD4E90121247894
:1028E000B06814F00104D5E9015324D1521BA5426C
:1028F00012D101EB4503144600EB4505411AACB972
:1029000005EB4201FFF7A7FA00273378706067F301
:102910000003337005B0F0BD31F8147033F814C003
:1029200087EA0C0720F814700134E0E71F885F5233
:10293000013C0233E3E7CDE90277CDE90057FFF729
:1029400008FBE1E70131FFF738FB2B78DB4303F0AD
:10295000010303932378DB4303F001030127029370
:1029600001976B680093D4E90121AB68B068FFF769
:10297000F0FACAE72DE9F04F4B6885B004460E46E1
:1029800015460BB1536843B9237823F00103237034
:102990000023636005B0BDE8F08F81422DD1FFF7C1
:1029A00021FBA542064607462ED06B68716820467B
:1029B0001944FFF702FB2268A068C2F39D0252008F
:1029C00000213AF0D7F9B368D4F808E0D6F80490BB
:1029D0000193AB68029300226B6803930EEB4908E6
:1029E000F4461146039B934233D0DDF804B0CDF892
:1029F0000090ACF1020000231AE0824206D1FFF7FA
:102A0000F1FA05460746D0E70546CEE70027CCE7B2
:102A100030F802AF53441946029B3BF802AB33F83F
:102A2000123003FB0A130099038001391B0C00913B
:102A300000990029ECD14146881C13B1A8F8003058
:102A40000146A1EB0E0149100CF1020C0132804647
:102A5000C8E761602A78337853402278384663F3B8
:102A60000002227005B0BDE8F04FFFF7F4BA4B68E2
:102A700070B50546144613B11378DA0706D52B78DE
:102A800023F001032B7000236B6070BD636823B9D2
:102A9000BDE870400121FFF7EABA0846FFF7A2FA45
:102AA00006462046FFF79EFA012104462846FFF716
:102AB000DEFA636883B1A3681B88DB0704D532465E
:102AC00029462846FFF756FFD4E90121012308468D
:102AD000FFF7CDF9606038B93046FFF7BCFA204601
:102AE000BDE87040FFF7B7BA324631463046FFF7CF
:102AF00041FFDEE72DE9F04F0C4651688FB0934659
:102B0000013105460393FFF758FADBF80420A86863
:102B10000132520000213AF02DF92B78002623F0E3
:102B200001032B706E60DBF8041020460131FFF7C3
:102B300044FA59462046FFF7C6FA039BD4F808909A
:102B4000D4F80480D3E901370293AB6804933A4682
:102B5000029B41464846FFF764FA002833D1049AA5
:102B60006060012313806B6023786268002A0CBFC9
:102B7000002103F0010161F30003039923709BF826
:102B8000003009784B40DB0740F1FD806B68297805
:102B9000003B18BF012363F300012970002A00F0F5
:102BA000F2800BA84FF0FF31FFF7ABFA0BAA2946D2
:102BB0002846FFF7E6FC039A214620460FB0BDE801
:102BC000F04FFFF7DEBC013001D16E60CCE7029B15
:102BD00003F10042013A4FEA420A37F81210334635
:102BE0000E0403F101004ED59BB209EB48014FF0F2
:102BF000000C08F10100C3F1100629F818C001917A
:102C000060600231CE4605968E4540D337F81220DB
:102C10009A400592029A012A09D907EB0A02C3F1E8
:102C2000100132F8022CCA40059911430591029A0D
:102C3000801A6860049A00F10040013802EB4002FB
:102C400007920AF102020992BA1E0892D4F804A06F
:102C5000029A524529D30AF1004A0AF1FF3A09EBD8
:102C60004A0A0022C3F11000D14573D96FF0004128
:102C70006B682BB104985A1830F81220002A73D0D0
:102C80006FF0004175E0490089B20346A8E7BEF83D
:102C9000008008FA03F64CEA060C059E2EF802CBDB
:102CA00028FA06F81FFA88FCAEE7019A0198118805
:102CB00032F8022C42EA01420599B2FBF1F209997D
:102CC000411A06910899069F00200E4686460199F2
:102CD000B9420DD809880844A8BB079921F80229F0
:102CE000019A0791023A01920AF1FF326260ADE760
:102CF00036F8021FB7F80080994041EA1E4E1FFACD
:102D00008EF1514318FA80F81FFA81FC090CA8EBE8
:102D10000C0CC1EB204127F802CB01EB2C40D6E78D
:102D200038F8021F994041EA1E4EBCF800103944A1
:102D300011FA8EF12CF8021B0F0C01996145EFD8A6
:102D40003844013AC8E70027DDF82080DDF818C0D4
:102D5000BE46F2E7BAF8001041FA03F6324381406A
:102D60002AF802298AB27FE7013B6B6080E7013BCA
:102D700063606368002B3FF4F7AE5A1839F81220ED
:102D8000002AF4D0F0E60FB0BDE8F08FF0B51F4692
:102D90004B6885B004460D4616464BB11378DA07EA
:102DA00006D47B68012B0BD1BB681B88012B07D194
:102DB000237823F0010323700023636005B0F0BD86
:102DC00001212046FFF753F97368002BF6D02846FF
:102DD000FFF708F905463046FFF704F90023CDE96F
:102DE0000133064603937368B3B1B3681B88DB07EE
:102DF0000AD52A4621462046FFF7BCFD3B4622461F
:102E0000214601A8FFF776FED6E9012101230846F5
:102E1000FFF72DF8706058B901A8FFF74CF9284664
:102E2000FFF719F9304605B0BDE8F040FFF713B9D8
:102E30002A4629462846FFF79DFD3B462A46294655
:102E400001A8FFF757FECEE710B5D0E901210346F0
:102E500001EB42020020914204D31B78DB0748BFFC
:102E6000404210BD32F8024D44EA0040F3E730B56D
:102E7000D0E90124002304EB4202944206D30278F5
:102E8000D20748BF5B420B60012030BDB3F5004F55
:102E900004D232F8025D45EA0343EEE70020F4E78E
:102EA0002DE9F0470546D1B19818D5E901840026EF
:102EB000A4F1020E4FF0010C374603EB0209B8F102
:102EC000000F0ED1B9B3C21A18462B7813F0010FB8
:102ED000BDE8F04714BFFF21002139F04BBF184671
:102EE000E3E73EF8024F103744EA064695F800A0A3
:102EF000072F0AF0010A02DC08F1FF38DFE7B4B25D
:102F0000BAF1000F06D0E4435CFA84FC1FFA8CF49B
:102F1000CCF3072CE4B249B100F1FF3A00F8014CC0
:102F200053450BD0083F360A5046DFE782460AF881
:102F3000014BCA45F5E713441A1AC6E7BDE8F08706
:102F4000D0E901329FED0C0A9FED0C7A02EB4303AE
:102F50009A4205D30378DB0748BFB1EE400A7047B9
:102F600033F8021D07EE901AF8EEE77AE0EE077AE2
:102F7000B0EE670AECE700BF0000000000008047E9
:102F80002DE9F84F44689DF828B00B9F81468A468A
:102F900015461E469CB982B1551E3A4615F8011FCA
:102FA000134639B930221A70002203F8012FD81BBA
:102FB000BDE8F88F02F8011BF0E73B46F2E764003A
:102FC0002046FDF7E9F9D9F808108046224639F085
:102FD0008DFE3A463B4608EB0401A6F13A008C1EF2
:102FE0000026A045A4462CD93036392E1C4688BF71
:102FF000361804F8016B4646B142B4462CD8BBF1F2
:10300000000F40D14046FDF7EFF95DB1284639F099
:10301000EFFE2A18611E1346AB4236D8954288BF90
:103020000020044499F80030DB0744BF2D2304F846
:10303000013B3B46621E9A422CD800232370E01BC2
:10304000B6E7BCF800C04CEA0646B6FBFAFC24F82A
:1030500002C90AFB1C66C4E7BCF800C00236BCF11A
:10306000000FC9D0BBF1000F0BD00026A4EB020C5F
:10307000BCF1030F02BF9C1C83F801B02246002E56
:10308000C0D12346ABE70126F0E713F8016D01F844
:10309000016FC1E71978107803F8010B02F80119E4
:1030A000C9E7D0E9023293423DBF5A1C82601878CA
:1030B0004FF0FF307047036810B5044613B1406805
:1030C000FDF792F92046BDE81040FDF78DB90000EC
:1030D000F8B5054610200C461F461646FDF75CF96C
:1030E000054B8460C0E900743444C4606B60034BDA
:1030F0002860AB60F8BD00BFA3300008B7300008FF
:1031000002690A2A10B5044635D1836A0133836205
:103110000123A269E36263696261226F2361002A6D
:1031200031D0616E8A423FBF501CA16E20678A5C1D
:1031300028BF0022A2613BB9E2692261226A626172
:10314000626AA2616366236763690D2B08D1A36974
:103150000A229342626103D1D4E901039847A06136
:10316000A369013306D163695A1C03D00A2B1CBF23
:103170000A23A36110BDC36A092A04BF073323F0E1
:1031800007030133C5E7D4E901039847A061DBE7F2
:1031900001692729024601D0222912D1012024E009
:1031A0005369272BFAD0222BF8D0722914D1662B21
:1031B00016D190692728F1D0A0F122035842584136
:1031C0007047A1F16200132804D8084B034113F0A3
:1031D0000100E5D000207047662904D1722B00E081
:1031E000622B02D1E5E76229F8D07047EEFFF6FFC7
:1031F00038B504460D462069431C1AD00A2806D16A
:103200000DB1636BB3B12046FFF77AFFF3E7FEF72A
:1032100097FD0028F7D12369232B08D12046FFF71B
:103220006FFF23695A1CE6D00A2BF7D1E3E75C2B2A
:1032300002D00025284638BD63690A2BF9D1204603
:10324000FFF75EFFDFE700002DE9F04F436E85B02A
:103250000446A3B1036F93B929216030FEF71EF92C
:103260002369E36163692362A3696362A36E1A78C9
:1032700022615A7862619B78A3610323236700234C
:10328000636501212046FFF7B3FF276BA36A6364E0
:10329000002FE36AA36407DA072384F84C30013770
:1032A000276305B0BDE8F08F04D0062384F84C30C6
:1032B000013FF5E7002835D039462046FFF798FF53
:1032C000052384F84C30D4E90F3003F10042013A71
:1032D000E56A30F81220013D9542E2D009D8013B61
:1032E00030F81320954218D3DBD0022384F84C30F9
:1032F000D7E7A16B8B4207D308314900FDF767F888
:10330000A36B20640833A363E36B5A1CE26320F8C9
:103310001350236B01332363C3E7226BE363013A4A
:103320002263DCE725696E1C02D184F84C00B8E703
:103330002046FFF72DFF0646002800F0F08184F8B4
:103340004C702369722B6CD008D8622B0DD0662B81
:1033500071D0B9460025A8460B230FE0A3F17505EF
:10336000D5F1000949EB0509F4E76369722B4FF0C9
:10337000000568D0A8464FF001090C2394F84C20B2
:10338000002A69D184F84C30B9F1000F08D02046EA
:10339000FFF7B6FEB9F1020F02D12046FFF7B0FEEB
:1033A0002369222B0CBF2223272320460093FFF7FB
:1033B000A7FE2369009A934251D163699A424ED184
:1033C0002046FFF79DFE2046FFF79AFE4FF00309C7
:1033D00035B1636E23B9B54904F16000FEF7A1F879
:1033E00004F16002002304F1500A01922169481C93
:1033F00000F08F81B9F1010F02D10A2900F0898113
:103400004B452FD3194604F15000FEF7A3F80121D4
:103410002046FFF7EDFE2046FFF7BAFE002890D1C8
:103420003FE76369622B0DD0662B10D00025B046B4
:103430004FF0010990E76369722B354608D04FF0D1
:103440000008F5E70025B0464FF0020995E735463C
:10345000B0464FF002097FE79A4295D021E74FF03E
:103460000109B5E7009A8A4216D015B121697B2976
:103470001FD05C2940F04A8120460291FFF740FEB0
:10348000D4F810B00299B8F1000F6AD004F15000DE
:10349000FEF70BF85946ECE00133009902935046D1
:1034A000FEF703F8029B02932046FFF729FE029BDA
:1034B0009CE72046FFF724FE21697B290AD150466C
:1034C000FDF7ECFF2046FFF71BFE7B215046FDF782
:1034D000E5FFCBE701982821FDF7E0FFD4F864B0C1
:1034E00000222169481C0FD03ABB3A290CD07D2913
:1034F0000AD0212921D160697238012822D8A06917
:103500003A2801D07D281DD1D4E91921881810F856
:10351000010C3D2808D1A2EB0B0259445046FDF79F
:1035200017FF636E013B636601982921FDF7B6FF23
:1035300001982C21FDF7B2FFC7E721F020005B289E
:103540000AD1013201980292C9B2FDF7A7FF2046C5
:10355000FFF7D6FD029AC4E75D2808BF02F1FF32EB
:10356000F0E7BBF1780F09D8BBF15B0F08D8BBF1CE
:10357000220F71D050D8BBF10A0F7CD05C2185E7B7
:10358000ABF15C021C2A00F2958001A151F822F0F7
:1035900059360008B5360008B5360008B5360008BB
:1035A000B5360008F536000833360008B536000891
:1035B000B5360008B536000843360008B5360008B1
:1035C000B5360008B5360008B5360008B53600082F
:1035D000B5360008B53600083B360008B536000899
:1035E000B5360008B536000805360008B5360008BF
:1035F00037360008473600083F360008B536000861
:103600007B3600080D2194F84C300B2B74D104F15B
:103610005000FDF74AFF2EE0BBF1550F13D0ADD897
:10362000BBF1270F18D0BBF14E0F43D120480AF051
:103630001BFD0821E7E70921E5E70A21E3E70B2164
:10364000E1E70C21DFE794F84C200C2A06D15C213D
:1036500004F15000FDF729FF5946D4E7BBF1750F7F
:1036600014BF4FF0080B4FF0040B0021BBF1010B0E
:1036700006D24B1C37D1002315E74FF0020BF4E7BD
:1036800020460291FFF73CFD226903921046FEF7A7
:1036900075FB002800F058810299039A0901104631
:1036A0000291FEF7ABFB02990144DFE7E6EA04086A
:1036B000EFEA0408ABF1300107293FF65FAF4FF0A6
:1036C000030B08E020460291FFF71AFD22690299D8
:1036D000303A02EBC1016269303A072AC9D8BBF11E
:1036E000010BEFD1C5E7B1F5881F8CD3012384F816
:1036F0004C30C0E7072186E7FF29F7D80C2BF5D11E
:10370000C9B204F15000FDF7C9FEB4E7C9B2504692
:10371000F9E74B453CBF032284F84C2072E628466B
:10372000FEF718FB2169D8B95F2919D07F2917D86E
:103730000846FEF719FB002856D123692E2B4ED0E0
:10374000844D00262F781FB12369BB4240F0A4802E
:103750002046FFF7D5FC002F40F0A6800123C5E5E9
:10376000082384F84C3004F15005C9B22846FDF70F
:1037700095FE2046FFF7C4FC2069421C1BD1284659
:10378000FDF77DFE744F0646002557F8041B3046B2
:1037900039F03CFB00281CD10E35EDB2112D84F818
:1037A0004C507FF47EAD6D4BD3F8E031002B14BF4D
:1037B0000E2310239AE5FEF7CDFA40B920695F2861
:1037C00005D07F2803D8FEF7CFFA0028D7D0217C78
:1037D000CCE7FFF666AD0135242DD6D161E56069F1
:1037E000FEF7C2FA0028ABD021692E292AD10A237C
:1037F00084F84C30002504F150063046FDF755FEA4
:103800002046FFF77DFC0A272069431C3FF449ADA1
:103810004DBB20F02003452B25D16521304684F88F
:103820004C70FDF742FE2046FFF76AFC21692B2908
:1038300001D02D29E8D13046FDF737FE2046FFF7AD
:103840005FFCE1E70923302984F84C30D2D1636969
:1038500043F02003623B162BCCD8414DDD4015F0E0
:103860000105C8D1C6E7FEF775FA28B121692E29EE
:103870000DD184F84C70DEE72069FEF775FA002858
:10388000F4D123692E2BF1D05F2BD7D009E521F09D
:1038900020034A2BCFD1ECE7652F01D0632F00D155
:1038A0000135013601354DE7212F08D123693D2B24
:1038B0007FF454AF2046FFF723FC392316E52E2F63
:1038C0000FD123692E2B02D163692E2B01D05C23EB
:1038D0000CE52046FFF714FC2046FFF711FC0D23F2
:1038E00004E50335334615F8027C632F18D0652FA5
:1038F00016D01C4AD35C84F84C30543BDBB2052B09
:103900003FF6CFAC012202FA03F313F02A0F18D1CD
:1039100013F0150F3FF4C5AC636B13446363C0E44D
:1039200015F8012C2169914206F1010607D12046C4
:10393000FFF7E6FB3346652FDBD00235D3E7632F75
:10394000FAE7636B013BE9E7012384F84C30014659
:1039500059E600BFA1EA0408DC390508700100201F
:10396000012040006C3A05087FB5064601AD742081
:1039700085E80E00FCF710FD0446034695E80700B5
:1039800043F8046B83E8070001236FF00102002570
:10399000C4E90A320A22C4E90E23C4E90C551420F2
:1039A000FCF7FAFC2021206404F15000FDF7F9FC3B
:1039B000294604F16000FDF7F4FC236C25672046DE
:1039C0001D80C4E905552561FFF79AFB2046FFF7E6
:1039D00097FB2046FFF794FB2046FFF735FCA36CCE
:1039E000012B06D094F84C30052B1CBF062384F81D
:1039F0004C30204604B070BD30B585B001AC0546F2
:103A00002046FFF765FB94E80E002846FFF7ACFF61
:103A100005B030BD30B585B001AD0446014628463D
:103A200021F034FC95E80E002046FFF79DFF05B01D
:103A300030BD10B5044690B1C3684068984704F1A2
:103A40005000FDF7D7FC04F16000FDF7D3FC206CBB
:103A5000FCF7CAFC2046BDE81040FCF7C5BC10BD11
:103A6000D0E90432013B036152F823007047036937
:103A700042695B1A013B52F823007047F8B5446A6B
:103A800006460D46B4B1D4E900030B44834222D963
:103A90000831002201442046FCF7A4FC0246B8B9D4
:103AA000616820460831FCF79DFC63682360336A37
:103AB00063603462802D2F4638BF802707F10800ED
:103AC000FCF76AFC0023076043600446706202E072
:103AD00023682B44236060680544656008342044F3
:103AE000F8BD38B50D460C211446FFF7C7FF4FF45B
:103AF0009D72C0E90124056038BD38B5D0E90332B4
:103B00009A4204460D4608D3103399004069FCF7E9
:103B10005EFCE36860611033E360D4E90432591C51
:103B2000216142F8235038BDF8B504461D46D0E95E
:103B3000000383420F46164608D31030C100A06828
:103B4000FCF745FC2368A06010332360D4E901032F
:103B5000421C626053F8301067F3170143F83010CD
:103B600003EBC002D6705560F8BD10B48469CAB2C8
:103B70000023616C5DF8044BFFF7D6BF10F0010223
:103B80001CD110F003030CD000F00F03062B15D04E
:103B90000A2B11D100090D3803288CBF0020012009
:103BA000704770B102793A2A08D02D2A08D180686E
:103BB000B0FA80F040097047104670470120704706
:103BC00018467047C20702D540F0010070478307CE
:103BD00010D0030900F00F00062803D1D80040F0F0
:103BE00002007047A3F10E00022809D8064B53F8D3
:103BF0002000704730B103793A2B03D180687047B9
:103C00000248704702487047983A0508545605081C
:103C1000885A050838B505460C46FFF7AFFF38B19E
:103C20002846FFF7CFFF0BF041FA031B58425841DB
:103C300038BD2DE9F0410F4605461446114689B9B5
:103C4000204612F0EFFD014600F10808A4B90A462B
:103C500028463946FFF745FF01462846FFF74DFF46
:103C6000012007E001392846FFF701FFFFF786FF33
:103C70000028E4D1BDE8F0812846FFF7F1FE0646B2
:103C8000FFF7A0FF013C48F82400002EDED0B30768
:103C9000DCD1686A00F108039E42D7D3426813441E
:103CA0009E42D3D273681B0A0233A2EB83024260A6
:103CB000CCE70000F7B5866996F84C20A2F108031E
:103CC00005460F46042B5BD801A151F823F000BF35
:103CD000E53C0008253D0008353D00084F3D000843
:103CE000773D0008D6E91510FDF7A4F9902F04469A
:103CF0000ED1C100002241F0020105F128000AF0B6
:103D0000A3FD28B14268D3071CD542F0010002E0B0
:103D1000200140F002000146284603B0BDE8F04013
:103D2000FFF7EBBE0022D6E91510334608F0F6FA8D
:103D30000246E8E70096D6E915100023012208F0B4
:103D40006BFB0246716C2846FFF7CBFEE3E7D6E932
:103D500015100A2906D8FDF76DF930B1000140F0C1
:103D60000600D8E7FDF718F9F7E7D6E91521064868
:103D700010F05CFEE5E7D6E9151010F02DFFE0E746
:103D8000120142F00A00C6E77C59050810F0010252
:103D9000034604D040F001030B600120704790B14E
:103DA00010F0030010D11A793A2A0ED19B680B60EB
:103DB00013F00100F1D19A0707D11868034BC31A19
:103DC000584258417047704710467047FC4F0508ED
:103DD0000021FFF71FBF0121FFF71CBF2DE9F04FA6
:103DE0002D2A85B00446884616461D460BD1002173
:103DF000FFF73DFEC0B1870702D10379922B13D0A4
:103E000005B0BDE8F08F922A39D10021FFF72FFECF
:103E1000014648B1880707D14F68FBB2952B23D1E3
:103E20002046FFF71DFE013DA6F12303DFB2092F57
:103E300000F2FE80092B00F2E28001A252F823F08A
:103E40003D4000083D4000083D400008AF400008EC
:103E5000AF400008AF400008254100083D40000881
:103E6000FF3F0008AD410008962BDDD127F0FF078A
:103E7000204647F09207FFF7F3FD4F60C0E7962A10
:103E800013D1D0E9012303EBC203013513F8153C2C
:103E90002D2B40F0B5802A46FFF7CBFE002800F01E
:103EA000AF806368023B6360AAE7A2F11E03012BA7
:103EB00061D9202A00F08B80052AB5D10021FFF7B7
:103EC000D6FD0746002800F09B8010F0030A05D1BC
:103ED000436803F0FE03562B00F092800121204638
:103EE000FFF7C5FD00F00F03022B40F08980BAF107
:103EF000000F40F085803B792C2B40F08180BB681F
:103F000003F00F02022A7BD11B09482B78D1FB68F2
:103F1000002B75D09A0773D11A79302A70D1D3F853
:103F200008B04FEA10195846FFF728FE002840F065
:103F300013819C499C480DF033F8A1693A680968DF
:103F4000054653460DF002F92846FCF7FDF91E2EF2
:103F50000AD1FFF740FF18BB3846FFF739FF00B919
:103F6000D3460BF1FF3A0BE0FFF732FFC0B93846FA
:103F7000FFF731FFF3E705F1FF3A8DB1AB46A946F4
:103F800009F1FF3949462046FFF771FD236962694F
:103F9000A3EB0B03074642F82300B9F1000FD6D17B
:103FA000002151450ED16D1A012D3FF429AF362E57
:103FB0007BD12A4641462046FFF73BFE00287FF48E
:103FC0001FAF1DE02046FFF74BFD0131E9E700215F
:103FD000FFF74DFD0746FFF7FBFE68B93846FFF7D0
:103FE000FAFE68B1EA212046FFF73AFD204605B007
:103FF000BDE8F04FFFF781BD4FF48571F3E72B2645
:10400000A91C89002046FFF739FD46EA052307462B
:10401000C0F80080436000F10801002D40F01A81D3
:10402000962E03D139462046FFF767FD3946DDE776
:10403000922E00F00581062EBBD0B8E7691E2046FF
:10404000FFF715FD01A9FFF7A1FE70B3022F9ABF7C
:10405000A6F10D07FFB22227A5F10209B9F1000F61
:1040600009DA002D40F0E180019AD30740F1E280A7
:1040700042F00101BAE749462046FFF7F8FC02A9E1
:10408000FFF784FE88B1222FDDF808A008D001993F
:104090005246384609F0CEFD09F1FF390190DDE7BF
:1040A00050460EF040F90028F1DA332ECFE0691EB9
:1040B0002046FFF7DCFC01A9FFF768FE0028F4D0DA
:1040C000A5F10209B9F1000FCBDD09F1FF3120465E
:1040D000FFF7CDFC02A9FFF759FE0028E5D04946BD
:1040E0002046FFF7C4FCC0F307104228DDD0442867
:1040F000DBD0DDF808A02438C7B250460EF013F923
:104100001A2F0AD80028D0DB01995246384609F008
:1041100091FDA9F102090190D4E71E2FF4D90028DE
:10412000F2D1C2E700212046FFF7A1FC01A9FFF769
:104130002DFE0028B9D001212046FFF798FCC0F3DE
:104140000710332818BF3F38019914BFC0B20220AE
:1041500008F0ECFF019084E75846FFF733FD4FEA83
:10416000C9030A46074643F0020104F128000AF099
:104170006BFB47604846FDF722F803785F2B20462B
:1041800008D1FFF76DFC00252046FFF769FCA84623
:10419000082649E6FFF764FC59462046FFF7ADFCC8
:1041A0002EE700BF88EB0408504A0508012120468D
:1041B000FFF75DFC00F00F03022B07467FF475AF9D
:1041C00000212046FFF753FC00283FF46EAF10F0AB
:1041D00003027FF46AAF0379322B7FF466AF3909AB
:1041E000C900D0F808901F4841F002010AF02CFBEA
:1041F00000283FF45AAF406802AA4FEA191108F0AC
:10420000B9FE029B002B3FF450AFD90707D49A07A1
:104210007FF44BAF1968144A91427FF446AF039A7A
:10422000002A7FF442AF01931BE72046FFF718FCFA
:10423000013D16E729462046FFF753FC0146D5E627
:10424000D4E9012303EBC20313F8053C2D2B7FF4C3
:10425000D7AEAEE62046FFF703FC013D41F825004E
:10426000DBE600BFA43A0508FC4F050803460068DA
:1042700030B550B184070AD14468E5B28D4206D109
:1042800000F10803200A136030BD0346FBE701205C
:10429000F9E700002DE9F04FAA4B97B00024CDE9D3
:1042A000073102900D4605A8A7490192CDE90544C2
:1042B000FCF710F840234FF40070CDE90934FCF707
:1042C0006BF820230B908020CDE90C34FCF764F8C8
:1042D0002146CDE90E0513A8CDE911440AF07EFA76
:1042E000019B002B48D0022B0CBF3F22224600230B
:1042F000696C964F09A8FFF717FC00230A9C002C55
:1043000000F06481013C0B9991480A9401EBC402CE
:1043100051F83410D6785268C1F3170A8D4911F854
:1043200006B08D49895D632E88BF41F4807100EB32
:1043300041080BF0300110290BF00F091ED0202985
:104340004BD0002B00F01B81B9F1020F40F00A8125
:10435000012A40D000211BF0010F02F1FF3306D0EB
:10436000B8F802003840B0F5805F08BF5308012B51
:1043700040F0E580E1B1E2E03D22B8E702B1BBB137
:1043800008EB420825E0C34638F8023B03EA070180
:10439000B1F5805F0ED195F84C10C3F30B03994231
:1043A00016D109A83146FFF785FC2846FEF74CFFD9
:1043B0000023A3E7531C4B4504D23246514609A8BB
:1043C000FFF7B2FBBBF8001009A8FFF7CEFBEFE741
:1043D00001329145D7D8012390E773B102F1004330
:1043E000013B38F813303B40B3F5405F21D1002149
:1043F00009A80392FFF781FB039A08EB4204914559
:104400002BD8019B83B1052E0ED1002109A8FFF7FF
:104410002EFB48B9012109A8FFF729FB830744D0E7
:1044200000F00F00022845D1002408EB4903A14603
:104430005AE0012ACFD995F84C30062B40F0F48091
:10444000464947480CF0ACFD6A6C296804460023D5
:104450000CF07CFE2046FBF777FF039434F8021B38
:1044600001EA0700B0F5805F16D195F84C00C9B29B
:1044700088420ED1082805D1314609A80392FFF7DA
:1044800019FC039A03922846FEF7DEFE039A0132D6
:10449000B5E7002A9FD0CEE7531C5146324609A803
:1044A000FFF742FB039B19888EE70028BCD00379F5
:1044B0003A2BB9D109A8FFF7D3FA09A8FFF7D0FA28
:1044C00000230822514609A8FFF788FC70E733F85B
:1044D000022D02EA0701B1F5805F10D1D2B2082A9D
:1044E00002D1013409F101094345F0D1B9F1010FBD
:1044F0001CD11BF0400F19D00026314610E0214698
:1045000009A80393FFF7B3FA039B08B109F1010966
:104510000134E9E7FFF7A4FA0136002818BF014685
:10452000A64209A8F6D1FFF7E8FA41E71BF0800F91
:1045300004D0002109A8FFF7E0FA013423463246EF
:10454000C0E700BF333A000883CE000800F0FFFF49
:10455000883B0508103F0508D83A050894EB040885
:104560002C4A0508012A3FF436AF12F001013FF44E
:10457000F2AEB9F1030F7FF45EAF0121EBE609EA79
:10458000020303F0010338F8134004EA0701B1F510
:10459000805F13D195F84C10C4F30B04A14202F1D3
:1045A000010409D11BB9314609A8FFF783FB28464E
:1045B000FEF74AFE2246E2E72246C5E6531C514674
:1045C000324609A8FFF7B0FA2146FDE613A80AF023
:1045D00019F9129850B1416822460831FBF702FFE1
:1045E000129B5A681A60119A5A60119395F84C30D0
:1045F000002B7FF420AF0D9B002B3FF41CAF0E9BD4
:104600000B981B681093FBF7EFFE0E98FBF7ECFE80
:104610000120FBF767FEDDE91001029B83E8030040
:10462000184617B0BDE8F08F022B01D1034908E707
:10463000042B0CBF02490349034803E7A6EB040817
:10464000CDEB0408E0EB0408504A050838B50446F1
:10465000406808B9606038BD4568FBF7C5FE28466C
:10466000F7E70000F8B5054630200E461746FBF781
:10467000ACFE072D04460570C66001D0012D0FD198
:10468000B368C3F30F13A38208F06EF8042320610C
:104690002783E3842020FBF77FFEE0622046F8BDFD
:1046A000014B5B5DEFE700BFC03F050810B5044656
:1046B000C06AFBF799FE2046BDE81040FBF794BEA8
:1046C00030B5058D04460022954201D8002030BD4A
:1046D000E36A03EBC20043688B42F8D00132F3E790
:1046E00070B504460D461646FFF7EAFFC0B9E38CE5
:1046F000228D9A4208D30633D900E06AFBF767FEA1
:10470000E38CE0620633E384238DE26A591C02EBFA
:10471000C300218502F83360002343704380456065
:1047200070BD034618465B68002BFBD1FFF7C8BF7E
:10473000F8B544680E462CB9F8BD042BFCD105230E
:104740000370F9E7254628466D68002DF4D0776898
:104750003946FFF7B5FF0028F5D00378043B022B5C
:10476000EAD806253570002239462046FFF7B8FF03
:104770000378002BE1D105706468F4E7036A1B8BB2
:10478000012B1EBFC3685B18C3607047836A10B5F6
:1047900004469B6F406A9847238B226A0133918CB1
:1047A0009BB29942238338BF938410BD038B10B50D
:1047B000013B0383836A0446D3F88030406A9847FC
:1047C00020460121BDE81040FFF7D8BF2DE9F04F8A
:1047D00085B004460D46039298461BB1CB8A43F040
:1047E0000803CB82039BEB83236ADA8A42F0300210
:1047F000DA821B78002B46D1A36A039AD3F8B06003
:10480000606A43462946B44605B0BDE8F04F6047AC
:10481000DB6A03EBC60B13F83630053B012B1DD8C2
:104820004FF0000917E0EB6A03EBC90213F83930C7
:10483000062B0ED1DBF804105368994209D1A36A04
:10484000BBF802201B69606A1F460023B8470AF1C3
:10485000010A09F101092B8D4B45E4DC0136236A7D
:104860001A8DB242D4DCBAF1000FC5D0A36ACDF8DC
:104870000080D3F8B460606A039B52462946B04773
:1048800005B0BDE8F08F0026B246E8E7836A10B5B0
:104890000446D3F88430406A00219847A36A606ACE
:1048A0001B6B0F219847A36A606AD3F8C8300121B7
:1048B000984720460321BDE81040FFF75FBF38B599
:1048C000836A04465B6C406A00229847A36A606A68
:1048D000D3F8BC5000231A461946A8472046BDE825
:1048E0003840FFF7D3BF836A89681B6D406A002296
:1048F00009091847836A8968DB6B406A184710B555
:104900000446084611461A46FFF7ACFE236A436088
:1049100000238360E3690BB9E06110BD1A469B6810
:10492000002BFBD19060F8E72DE9F04F87B00546EA
:1049300000AF0C4611B90121116013E011F003061C
:1049400019D10B79682B19D1CB681B0913608C68BE
:10495000002CF0D0012604F00F03022B0DD1210909
:10496000002EE9D0AB6A686ADB6A002298471C37E0
:10497000BD46BDE8F08F0026EDE716B9A3681B0918
:104980001360A04658F8043F4FEA132A08EB8A0345
:104990000AF1FF3BBB60C14659F8040F0009FCF760
:1049A00003FCBB6899458344F6D10BF1070323F060
:1049B0000703ADEB030DC7F80CD0E946002358F808
:1049C000040F3B6007F114010009FCF704FC7A694D
:1049D0007A600146484638F089F93B687A680133C5
:1049E0009A454A4405D091464FF02E0209F8012B12
:1049F000E5E75946F868FCF71DFBAB6A0146DB6A40
:104A0000686A00229847002EB1D00834BB689C42E7
:104A1000ADD054F8041FAB6A686A1B6D0022090907
:104A20009847F3E731B1826801F00303134304BFF1
:104A30000B68836070472DE9F04107461E4659B167
:104A400011F0030510D14B68D8B290420CD14FEA57
:104A500013280C1D454501DBBDE8F08154F8041F07
:104A60003846B0470135F5E738463346BDE8F041F2
:104A700018470000F8B504460E4611461A460023B2
:104A800085780769837003610E4BFFF7D4FF636875
:104A9000BBB9618A51B1228A42B9A36A606AD3F86C
:104AA0009C309847A36A606A1B6C9847238A628A85
:104AB00031462046FFF78AFE003D18BF0125A5704C
:104AC0002761F8BD2153000870B54378012B0546D6
:104AD0000C4606D1036A0A461B8B0221FFF70FFF23
:104AE0002061A268216928464C23BDE87040FFF789
:104AF000C1BF70B513464278012A05460C4604D161
:104B00000A460721FFF7FBFEA061A669E268284676
:104B100046233146FFF7AEFFB08A70BD024B89686D
:104B20009D22FFF788BF00BF49580008024B8968E3
:104B30006B22FFF780BF00BF3974000838B54368A7
:104B40000D46044611464BB905480CF029FA294692
:104B500060602046BDE83840FFF764BF38BD00BF45
:104B6000504A0508014AFFF7E9BF00BFE4EB04081B
:104B70000B79092B70B50CBF858AC58A4FF6FF7378
:104B80009D42044602D1064AFFF7D8FF218B628B73
:104B9000A36A606A5B6F8A1A2946BDE870401847AD
:104BA000F1EB040838B5054679B101F00F03022B8B
:104BB0000DD10C09204609F07BFC002806DA0649D5
:104BC000064822460CF082FA6860002038BD044A8C
:104BD000FFF7B4FFF9E700BF0AEC0408E449050851
:104BE0000FEC040870B51446054612780E4683B1E2
:104BF00032B1032A04D0104ABDE87040FFF79EBFCF
:104C0000032626706168286AFFF78BFD00B10670E5
:104C100070BD62B901232370006A2146FFF788FD49
:104C20002378012BF4D1054A31462846E4E7062AC9
:104C3000EED0034AE0E700BF16EC040823EC0408BA
:104C400030EC04082DE9F3414378012B04460D466E
:104C50001AD10B79102B0CBF4FF001084FF0000850
:104C600008D0036A1B782BB9114A02B0BDE8F041A5
:104C7000FFF764BF01AA6D2105F10800FFF7F6FAFE
:104C800000260746B74202D102B0BDE8F081019B81
:104C9000206A53F8261000220909FFF721FD434638
:104CA000024629462046FFF79DFF0136EAE700BF8E
:104CB00037EC04084278012A0B4602D1006A02F060
:104CC00029BE816A026A406A203102F032BE42780F
:104CD000012A0B4602D1006AFFF702BD816A026A0F
:104CE000406A103102F025BE70B505460C46002919
:104CF0002ED0CA0706D5836A5B6B4910686ABDE887
:104D0000704018478B0717D004F00F04022C4FEAAD
:104D100011110AD0062C0CD0052919D0836A406ADB
:104D20001B6BBDE87040C9B21847BDE87040FFF783
:104D3000CEBF836A9B6BE1E7836A0968DB68406AE0
:104D400098472279034B214653F822302846D6E76C
:104D500070BD00BFC83F05082DE9F74F05460C465A
:104D600016461F462046FFF733F840B16EB9AB6ACE
:104D70009B6E3946686A03B0BDE8F04F184720467D
:104D8000FFF729F820B1002EF1D103B0BDE8F08F74
:104D9000002C48D0A30746D163684FEA132BDBB23F
:104DA0001E2B18D1DEB1043404EB8B0B5C45ECD028
:104DB00054F8041F3B4632462846FFF7CDFFF5E77F
:104DC0005AF8041F019243462846FFF7C5FF09F130
:104DD0000109019A11E01F2B1FD1002EE3D0D5F855
:104DE0000C8008F10103EB600BF1FF3304F1040ABE
:104DF0004FF00009009386F00102009B4B45DFDC79
:104E00000BF101013B4654F8211032462846FFF7CA
:104E1000A3FFAB6A41469B6AACE7202B03D1A46891
:104E200086F001069EE721462846FFF75DFFAB6A44
:104E3000686ADB6E3A46314603B0BDE8F04F18476A
:104E400038B5026A1278072A04460B4606D0022AB1
:104E500004D0BDE83840144AFFF770BE9D6885B99C
:104E6000A36A606A1B6B0F219847A36A606AD3F834
:104E7000C8300021984720460121BDE83840FFF79F
:104E80007DBCAB070BD12B79AF2B08D12046A9688D
:104E9000FFF72AFF2046BDE83840FFF7F7BC294658
:104EA0002046FFF721FFE0E74DEC040870B543789A
:104EB000CE68012B0446154606D1036A0A461B8BB1
:104EC0002946FFF71CFD7061002371691A462046D0
:104ED000FFF77CFCF1682046FFF706FF062D05D1A1
:104EE000A36A606AD3F8843000219847A36A606A95
:104EF000D3F8B8500023AC461A46BDE870400121F3
:104F0000604738B50C460546C968FFF7EDFEA16855
:104F10002846BDE83840FFF7E7BE0B79342B70B563
:104F200004460D4610D18968FFF7DEFEED68AD68D6
:104F300085B9A36A606A1B6B0F219847A36A042294
:104F4000D3F89C3002211AE0836A406A1B6B0F2160
:104F50009847ECE7AB071FD12B799A2B13D1A36AA3
:104F6000606A1B6B0F219847A9680029E6D020468C
:104F7000FFF7BAFEA36AD3F89C3004220321606ACB
:104F8000BDE8704018479B2B06D1A9682046FFF763
:104F9000ABFEEB689968E8E729462046FFF7A4FED8
:104FA000CCE710B504468968FFF79EFEA36A606AE5
:104FB000DB6CBDE810400021184700002DE9F743E5
:104FC0008D68044616465DB9002A75D0836AD3F809
:104FD0009C3002222946606A03B0BDE8F0431847BE
:104FE00015F0030740F08A802B79372B13D132B1AB
:104FF000836A406AD3F89C300222012198472046F8
:105000002946FFF771FEA36A606AD3F8A03003B0A7
:10501000BDE8F04318479F2B70D1EB681A79A12A9D
:105020005AD1A22101AA03F10800FFF71FF9A968CC
:10503000804621B38B0722D10B79372B1FD136B194
:10504000A36A411CD3F89C30606A02229847A96881
:105050002046FFF749FEA36A606AD3F8A03098475C
:105060004FF00109474510D1B9F1000F24D1A36ACF
:10507000606AD3F89C300322791C98471CE02046D4
:10508000FFF732FE4FF00009ECE7019B53F82710C1
:10509000A9B18E0713D10E79A6F1370046424641D9
:1050A0002046FFF721FEB9F1000F11D04EB9184A82
:1050B00029462046FFF742FD03B0BDE8F0830026F5
:1050C000EEE7A36A606AD3F8A03098470137C9E7D2
:1050D000002EFBD00F4AEBE7AB685BB19A0709D112
:1050E0001B79372B06D10422294603B0BDE8F043D3
:1050F000FFF7DCBE052229462046F6E72946204672
:10510000FFF7F2FDA36A0322D3F89C30012162E786
:1051100058EC040869EC04080122FFF74FBF70B592
:105120000D46C9680446FFF7DFFDA968A36A606AF7
:10513000D3F89430C1F30711332918BF3F39BDE8C4
:10514000704014BFC9B202211847F8B54F680C4629
:1051500089680546FFF7C8FD3F0A0C340026023671
:10516000B74204F1080400DCF8BD54F8041C2846DA
:10517000FFF7BAFD54F8081CAB6A686AD3F8983098
:1051800009092439C9B29847E9E72DE9F0410C46ED
:105190004E6854F8081F0546FFF7A6FDA6F10D0856
:1051A0005FFA88F8360A0127B74201DBBDE8F081D3
:1051B00054F8041F2846FFF797FDAB6A686AD3F8D6
:1051C0009830414698470137EEE72DE9F0414E68A7
:1051D00004460D46360A8968FFF786FD032E83BF15
:1051E000D4F80C8008F10103E3604FF000080127B8
:1051F0007B1C9E4222DC032E55D9E568606A6B1C3D
:10520000E360A36A29469B6E9847A36A606A9B6A1B
:1052100041469847A36A606A9B6801219847A36A40
:10522000606A1B6E9847A36A606ADB6D9847A36A41
:10523000606A9B6A2946BDE8F04118472969204603
:105240000237FFF751FDB74207DAA36A606A5B6D68
:105250009847A36A606A5B6E9847EB68A26A606AC7
:10526000D2F8982003F00F010A2911D1C3F30713D4
:10527000252B1ABF343BD9B206219047B74205DA35
:10528000A36A606A1B6F4246002198470835AFE762
:105290001979852901D13221EFE79B680BB90721E4
:1052A000EBE73321E9E7BDE8F08110B504468968F2
:1052B000FFF71AFDA36A606AD3F89430BDE8104086
:1052C000032118472DE9F0470D46D0F80C8055F81A
:1052D000046F5FFA86F9A9F11E03D3F1000949EBC7
:1052E000030908F101030446C360360A0027B742E8
:1052F00006DBA36A606A9B6A4146BDE8F04718472F
:1053000055F8041F20460137FFF7EEFCB742F0DAEC
:10531000A36A606A1B6F424649469847E7E7000068
:1053200001F00F03022B70B5044621D00B79492BF5
:1053300018D0483B082B27D801A252F823F000BF11
:105340006B5300088953000869530008895300080B
:1053500089530008895300088953000865530008E1
:10536000695300080123A37070BD8E680D6975B97B
:10537000A378002BF8D1638A002BF5D020461D4A74
:10538000BDE87040FFF7DABBD1E90265EFE7A3782B
:105390003BB3238A01339BB2012B23820ED1618A56
:1053A000D4E90903D1B1D3F89C3000229847A36A0D
:1053B000606AD3F89C300222002198472946204693
:1053C000FFF792FCA36A606A9B6B31099847A36A56
:1053D000606AD3F8A030BDE8704018471B6C98474E
:1053E000E5E7638A0133638229462046BDE87040C1
:1053F000FFF77ABC74EC04082DE9F041C568D1F8D8
:105400000C800E46AB1C04460022D8F80810C3607E
:105410002B46FFF7A1FCB1682046FFF765FCA36AA5
:10542000606A9B6E6F1C39469847A36A606A9B6AE4
:1054300029469847A36A606A9B684FF0FF319847F6
:10544000D8F80C102046FFF74FFCA36A606A9B6AED
:105450003946BDE8F04118472DE9F047C668D0F855
:1054600014A0B0F81A908682B31CC36006F101083C
:10547000038BA0F816800446438388680D46FEF728
:10548000A7FCF8B9E768A8687B1CE360FEF7A3FCFB
:1054900020B9A36A606A9B6E41469847A36A606A16
:1054A0009B6A39469847E9682046FFF71DFCA36AC6
:1054B000606A9B6A41469847A9683B46012220469C
:1054C000FFF74AFC2969C4F814A02046A4F81A90F2
:1054D000FFF70AFCA36A606A9B6A3146BDE8F047A1
:1054E00018472DE9F347C668731CC36004468868F3
:1054F0000D46FEF76DFC0246E8B9E768A9687B1C1B
:10550000E36020463B46FFF727FC2046E968FFF7AB
:10551000EBFBA868FEF75FFCD8B92B690BB96B6988
:1055200023B1A36A606A9B6E31469847A36A606A9A
:105530009B6A3946984701AA712105F11000FEF7D0
:1055400095FE002781464F450BD169692046FFF73C
:10555000CBFBA36A606A9B6A3146984702B0BDE8FC
:10556000F087019B53F82780D8F80800FEF730FC3D
:10557000024600BBD4F80CA0D8F808100AF10103C9
:10558000E36020465346FFF7E7FBD8F80C102046AF
:10559000FFF7AAFBD8F80800FEF71DFCD4E90923A1
:1055A0000028D6D19B6E314610469847A36A606AA0
:1055B0009B6A514698470137C5E70000184B2DE913
:1055C000F041D3F8E07104460D463FBBC6688968D8
:1055D000731CC36001223346FFF7BEFBA36A606AF7
:1055E0005B691F2101229847E96851B12046FFF706
:1055F0007BFBA36A606AD3F8B8503A463B46012168
:10560000A847A36A606AD3F8C43001219847A36A07
:10561000606A9B6A3146BDE8F0411847BDE8F081F9
:105620007001002070B58D6804463DB9836AD3F8D7
:10563000C4302946606ABDE870401847AB070ED1F8
:105640002B795E2B0BD1A968FFF74EFBE96820464A
:10565000FFF74AFBA36A0221D3F8C430EAE72946E0
:105660002046FFF741FBA36A0121D3F8C430E1E7EC
:1056700010B504468968FFF737FBA36A606ADB6DE3
:10568000BDE81040184700002DE9F041026A127889
:10569000072A044604D0BDE8F0411A4AFFF74EBA83
:1056A0008D685DB9836A406A1B6B0F219847A36AB6
:1056B000606AD3F8C030BDE8F041184715F0030226
:1056C0001DD12B791B2B1AD1C668EF68731CC360E0
:1056D000B9683346FFF740FBA9682046FFF704FB93
:1056E000A36A606AD3F8C0309847A36A606A9B6A6D
:1056F00031469847F9682046FFF7F6FAD7E729467A
:10570000F9E700BF92EC04082DE9F0410C4605468C
:1057100054F8046F360A04EB8607BC4208D1AB6A22
:10572000686AD3F89C3031460022BDE8F041184742
:1057300054F8041F2846FFF7D7FAEEE7896810B43B
:10574000034641B9826A406AD2F89C400A46234621
:105750005DF8044B18474A68120A022A0BD1CA683E
:105760004AB1940707D11279AC2A04D15DF8044BF1
:105770000622FFF79BBB5DF8044B1846FFF7C4BF3A
:105780002DE9F0410E46054656F8043F0F464FEA14
:1057900013280024444501DBBDE8F08156F8041FBE
:1057A0002846FFF7A1FA6B683BB10234284657F848
:1057B0002410BDE8F041FFF735B90134EAE710B530
:1057C0000446FFF7DDFFA36A606AD3F89830BDE8AE
:1057D00010402221184770B58D68044645B9836A88
:1057E000D3F89C3001222946606ABDE87040184712
:1057F000A9071ED16B68DAB2922A1AD11B0A022BB2
:105800000CD1EB6853B19A0708D11B79AC2B05D1A9
:1058100029460322BDE87040FFF748BB29462046D1
:10582000FFF7AEFF6968A36A0122D3F89C30090A2A
:10583000DAE729462046FFF757FAA36A0122D3F890
:105840009C301146D0E7000001F00F03022B2DE938
:10585000F04705460C4604D1BDE8F0470909FFF7BB
:1058600029BA002955D011F0030652D10B792C2BFF
:1058700038D18968FFF738FAE668002E49D016F06B
:10588000030846D17768FAB28E2A334609D13F0A17
:1058900006F1040907F1FF3AC24510DC013756F85A
:1058A00027301A79312A12D199682846FFF71CFA55
:1058B000AB6A686ADB6CBDE8F0470221184759F80B
:1058C000041F2846FFF710FA08F10108E4E7322A1E
:1058D0001FD19968AB6A686A1B6DBDE8F047022268
:1058E000090918472D2B14D18C6894B163681B0AE1
:1058F000022B06D0271D6368B6EB132F10D3BDE82B
:10590000F087E368002BF5D09A07F3D11B79AC2B15
:10591000F0D121462846064ABDE8F047FFF70EB908
:1059200057F8041F2846FFF78FFF0136E3E700BF53
:105930009EEC04082DE9F8430446006AC68A17461F
:10594000B2070D4606D5374A29462046BDE8F8433A
:10595000FFF7F4B801F00F02022A18D1A378090961
:105960008BB1838B013383834FF000094FF0010823
:10597000002955D00022FEF7B3FE03780646002B1F
:1059800038D0294AE0E7438B01334383ECE70A79B7
:10599000BA4289460BD18968A37809091BB1838B68
:1059A00001338383E2E7438B01334383DEE79A428B
:1059B00018D1A378002BC6D10122A270896879B3CF
:1059C00001F00F02022A18BF894646F0040618BFEC
:1059D000D9F80810C68206BF0909994609094FF08F
:1059E0000308C5E7896846F002060909C6824FF038
:1059F0000508BDE70423037080F80180236A1B8B30
:105A0000032B0DD1482F0BD1B9F1000F08D0D9F8D5
:105A10000C102046FFF7C6F8737843EA0013737042
:105A2000BDE8F883E0EB0408B2EC040849234822FF
:105A3000FFF780BF4F234E22FFF77CBF2DE9F04FC9
:105A40000E468DB0016200214270C1603378072B91
:105A50000446154605D0894A0DB0BDE8F04FFFF762
:105A60006DB8012A05D0036B021D1B68C06A294668
:105A700098476378D6F80C80032B10D10BAA4621E7
:105A800008F10C00FEF7F2FB236B0B9A9B680146B2
:105A9000E06A984763687083002B40F0B880D8F8BC
:105AA0001010C1B101F00F03022B10D10B09752B9F
:105AB0003FD006D83E2B3ED05E2B0CD0704A2046FD
:105AC000CAE740F21F529342F8D1032304E06D4A23
:105AD0002046FFF733F80223049309AAD8F81430BC
